:020000040800F2
:10000000B8DB012031030008EF1D0008EB1D0008DC
:10001000ED1D0008290B0008012200080000000067
:10002000000000000000000000000000790200084D
:100030002B0B000800000000CD020008F11D000895
:100040004B0300084B0300084B0300084B03000858
:100050004B0300084B0300084B0300084B03000848
:100060004B0300084B0300084B0300084B03000838
:100070004B0300084B0300084B0300084B03000828
:100080004B0300084B0300084B0300084B03000818
:100090004B0300084B0300084B0300084B03000808
:1000A0004B0300084B0300084B0300084B030008F8
:1000B0004B0300084B0300084B0300084B030008E8
:1000C0004B0300084B0300084B0300084B030008D8
:1000D0004B030008F52100084B0300084B03000800
:1000E0004B0300084B0300084B0300084B030008B8
:1000F0004B0300084B0300084B0300084B030008A8
:100100004B0300084B0300084B0300084B03000897
:100110004B0300084B0300082D1E00084B0300088A
:100120004B0300084B0300084B0300084B03000877
:100130004B0300084B0300084B0300084B03000867
:100140004B0300084B0300084B0300084B03000857
:100150004B0300084B0300084B0300084B03000847
:100160004B0300084B0300084B0300084B03000837
:100170004B0300084B0300084B030008000000007D
:100180004B0300084B03000800F002F800F064F88D
:100190000AA090E8000C82448344AAF10107DA45E2
:1001A00001D100F059F8AFF2090EBAE80F0013F0D0
:1001B000010F18BFFB1A43F00103184784550300D1
:1001C000A45503000A444FF0000C10F8013B13F053
:1001D000070408BF10F8014B1D1108BF10F8015BA0
:1001E000641E05D010F8016B641E01F8016BF9D193
:1001F00013F0080F1EBF10F8014BAD1C0C1B09D1EA
:100200006D1E58BF01F801CBFAD505E014F8016B5B
:1002100001F8016B6D1EF9D59142D6D370470000ED
:100220000023002400250026103A28BF78C1FBD8FF
:10023000520728BF30C148BF0B607047782900F0D3
:100240007081632900F01C84002070471FB52EF0D8
:1002500095F81FBD10B510BD00F038FC1146FFF732
:10026000F5FF26F085FB00F056FC03B4FFF7F2FF24
:1002700003BC03F0AFFC00002A4B19680868B0E823
:10028000F04F80F30988BFF36F8F4FF0000080F3C9
:10029000118870470000000006480068006880F37D
:1002A000088862B661B6BFF34F8FBFF36F8F00DF70
:1002B00000BF00BF08ED00E0DFF80C00016841F46A
:1002C00070010160704700BF88ED00E0EFF3098026
:1002D000BFF36F8F134B1A681EF0100F08BF20ED8D
:1002E000108A20E9F04F106008B44FF0500080F3FE
:1002F0001188BFF34F8FBFF36F8F2DF021F94FF0AF
:10030000000080F3118808BC19680868B0E8F04F55
:100310001EF0100F08BFB0EC108A80F30988BFF3FD
:100320006F8F704758020020EFF305807047000080
:100330000948804709480047FEE7FEE7FEE7FEE779
:10034000FEE7FEE7FEE7FEE7FEE7FEE704480549B5
:10035000054A064B704700001D1E00088901000871
:10036000B8D50120B8DB0120B8D70120B8D70120CB
:10037000704753EA020C00F069802DE9F04B4FF012
:100380000006002B1FBFB3FA83F503FA05F424FA25
:1003900005F65E4012BF1643B2FA82F502FA05F482
:1003A000C5F120051EBF22FA05FC44EA0C042035E5
:1003B00056EA044C4FEA144418BF641C4FF000087E
:1003C0004FF00009904271EB030C39D3002919BF9B
:1003D000B1FA81F701FA07F6B0FA80F700FA07F6EA
:1003E000C7F120071EBF20FA07FC46EA0C0620379B
:1003F000B6FBF4FCA7EB0507103F07F01F0BCBF192
:1004000020060CFA0BFB2CFA06F644BFB346002676
:10041000202FA4BF5E464FF0000B5BEA060C08BF1E
:100420004FF0010B19EB0B09ABFB027C48EB060804
:10043000C01B06FB02CC0BFB03CC71EB0C01C1E72C
:100440000B46024641464846BDE8F08B13B54FF0D7
:1004500000004FF00001AFF30080BDE81C40704782
:100460000FB4044910B503AA029800F015FB10BCA4
:100470005DF814FB0800002070B50C460546012A03
:1004800005D02878800600D5EA69002302E0012320
:1004900005E05B1C934202D2E05C0028F9D1A86918
:1004A000E618C01AA861286A184428622846AFF3E3
:1004B000008004E0D5E9012114F8010B9047B44213
:1004C000F8D32846AFF3008070BD0000F0B40D46AD
:1004D0000188090502D5214C7C4402E01F4C7C4474
:1004E0000E34002100F1240608E002F00F07120983
:1004F000E75D42EA03721B097754491C52EA03077D
:10050000F3D102780023120704D5702D06D009B16B
:10051000022311342246F0BC00F036BA0123103415
:10052000F8E770B504460D4621461068AFF3008029
:10053000024629462046BDE870400023C6E7D21D8A
:1005400022F00703D3E90023C0E70368126843F0F1
:10055000200303600823C3610023B7E75C4D030059
:100560002DE9F05F894604464FF0000ADFF874B1C8
:10057000FB44C0F820A02046E1688847002874D0DA
:10058000252806D0D4E901219047206A401C20622A
:10059000F1E700265F462046E168884720280546A7
:1005A00007DB312D05D2781910F8200C08B106436D
:1005B000F1E7B00701D526F00406C4F81CA0002717
:1005C000C4F818A02A2D09D0284601F048FE38B3F7
:1005D00004EB8708303DC8F8185019E059F8041B9F
:1005E000204604EB87029161E1688847012F0546A8
:1005F00018D1E069002820DA26F020061DE0D8F89E
:10060000180000EB800005EB40003038C8F81800F7
:100610002046E1688847054601F021FE0028EED11A
:10062000012F0AD02E2D08D12046E16888477F1C73
:100630000546022F46F02006C4DBA069002803DA35
:10064000404246F00106A061F00701D026F01006F6
:100650006C2D0BD0682D09D04C2D39D06A2D35D09A
:10066000742D35D07A2D33D016E038E0E1682F466E
:1006700020468847B842054609D16C2F26D04FF452
:100680008060E168064320468847054604E06C2FF9
:100690001AD04FF4807006430DB3A5F1410019281C
:1006A00002D8203546F400664A4629462046266090
:1006B0004E46FFF7C3FD80B101280BD0F61D26F092
:1006C000070000F1080956E74020E4E78020D8E75A
:1006D0000020D6E706F104094DE7284652E7206AD4
:1006E000BDE8F09FEC4C030040EA0103024630B540
:1006F0009B0710D14FF0013400E008C208C91D1B50
:100700009D4315EAC41FF8D013F0FF0102F8011B46
:100710000DD01B0AF8E711F8013B002B02F8013B52
:1007200005D011F8013B002B02F8013BF3D130BD9D
:1007300010B5431C02E010F8011B71B18107FAD11A
:100740004FF0013202C88C1A8C4314EAC211F9D05E
:10075000C01A0A0603D0C01E10BDC01A10BD0A047C
:1007600001D0801E10BD0902FCD0401E10BD032A1E
:1007700040F2308010F0030C00F0158011F8013BBE
:10078000BCF1020F624498BF11F801CB00F8013BA5
:1007900038BF11F8013BA2F1040298BF00F801CB69
:1007A00038BF00F8013B11F0030300F02580083A40
:1007B000C0F0088051F8043B083A51F804CBA0E897
:1007C0000810F5E7121D5CBF51F8043B40F8043BEC
:1007D000AFF30080D20724BF11F8013B11F801CB21
:1007E00048BF11F8012B24BF00F8013B00F801CBF2
:1007F00048BF00F8012B704710B5203AC0F00B80BD
:10080000B1E81850203AA0E81850B1E81850A0E814
:100810001850BFF4F5AF5FEA027C24BFB1E818506E
:10082000A0E8185044BF18C918C0BDE810405FEADE
:10083000827C24BF51F8043B40F8043B08BF70475A
:10084000D20728BF31F8023B48BF11F8012B28BF5F
:1008500020F8023B48BF00F8012B704702F0FF036D
:1008600043EA032242EA024200F002B84FF00002DB
:100870000429C0F0128010F0030C00F01B80CCF1B2
:10088000040CBCF1020F18BF00F8012BA8BF20F820
:10089000022BA1EB0C0100F00DB85FEAC17C24BF74
:1008A00000F8012B00F8012B48BF00F8012B70471E
:1008B0004FF0000200B5134694469646203922BFF9
:1008C000A0E80C50A0E80C50B1F12001BFF4F7AF44
:1008D000090728BFA0E80C5048BF0CC05DF804EB26
:1008E000890028BF40F8042B08BF704748BF20F894
:1008F000022B11F0804F18BF00F8012B7047000049
:100900004FF0013C50F8042B51F8043B9A4221D19E
:10091000A2EB0C03934313EACC1317D150F8042B2A
:1009200051F8043B9A4215D1A2EB0C03934313EA0E
:10093000CC130BD150F8042B51F8043B9A4209D147
:10094000A2EB0C03934313EACC13DBD04FF000006F
:10095000704700BFD01A01BAB1FA81F101F0180155
:1009600022FA01F0CB40C1F12001DBB2C0B2C01AC3
:100970002CFA01F3D11A914311EAC311E6D1704761
:1009800070477047704770472DE9F0470D4699460C
:100990009246044600F124080168880604D5E069FF
:1009A00021F01001216000E00120A84201DD471B79
:1009B00000E00027A1697A1902EB0900081AA0617A
:1009C0002078C00602D42046AFF30080002608E05D
:1009D000D4E901211AF806009047206A401C761CD1
:1009E00020624E45F4DB2078C0060AD52046AFF3DE
:1009F000008006E0D4E9012130209047206A401CA5
:100A00002062381EA7F10107F4DC07E0D4E90121D8
:100A100018F805009047206A401C2062281EA5F1A6
:100A20000105F3DC2046AFF300802078000602D5F4
:100A30000220BDE8F0870120FBE7000001694A1CA5
:100A400002610878704700B58FB0CDE9013100210F
:100A5000059105497944CDE9031011466846FFF731
:100A60007FFD0FB000BD0000E5FFFFFF10B543693B
:100A700013B1AFF3008001E0FFF7FEFC012010BDD1
:100A8000127800F124010A7000224A700122EDE779
:100A900011684FF0FF32E9E7074B70B50D467B4414
:100AA000FFF7D1FF0446284600F00CF810B14FF0D4
:100AB000FF3070BD204670BD4FDB0000004870471E
:100AC00054D50120007B00F0800070477546FFF789
:100AD000F5FFAE4605006946534620F007008546FF
:100AE00018B020B5FFF732FCBDE820404FF00006FB
:100AF0004FF000074FF000084FF0000B21F0070106
:100B0000AC46ACE8C009ACE8C009ACE8C009ACE848
:100B1000C0098D46704710B50446AFF300802046EB
:100B2000BDE81040FFF7A1BBFEE7704730B5B3F555
:100B3000804F05D06FF0704140F82210002030BD8A
:100B40008C690B688D6823434C688989240144EAC9
:100B50000524234343EA014150F82230024C23404C
:100B6000194340F82210E9E70000F0CF10B50A68F9
:100B700050F8223023F0010340F822308B68082B14
:100B800023D000224C681C43CB6813430A691C43E2
:100B900014434A691443CA6914430A6A14434A6AEB
:100BA00014438A6A1443CA6A14430A6B14438A6959
:100BB0002243CB6B1343064C096850F82120A24313
:100BC0001A4340F82120002010BD4022DAE700003F
:100BD0007FFF0F0030B5D1E9003443EA04138C687D
:100BE0008D89240244EA054423430C8A641E43EAA7
:100BF00004540B7D89699B1E44EA03630B43521C1A
:100C000050F8221001F040410B4340F82230002000
:100C100030BD2DE9F0410446A76D00F057F90546B7
:100C200094F835000026022806D08020606584F8FC
:100C300034600120BDE8F0812068016821F01601D0
:100C400001602068416921F080014161206C08B990
:100C5000A06C20B12068016821F0080101602068C3
:100C6000016821F0010101600BE000F02FF9401B49
:100C7000052806D9202034342062032060702670B5
:100C8000D8E720680068C007EFD134343F2094F8DB
:100C900028108840B8600120607026700020C9E7E5
:100CA00090F83510022903D080214165012070475A
:100CB000052180F835100068016821F0010101600C
:100CC000002070472DE9F84F0022DFF89C914FF08B
:100CD000010803274FF00F0C09F1040AA9F1040BD6
:100CE00008FA02F50B682B40AB426ED10C7904F088
:100CF0000304012C01D0022C15D18668540007FA98
:100D000004FE26EA0E06D1F80CE00EFA04FE4EEAC6
:100D1000060EC0F808E04468AC430D79C5F3001531
:100D20009540254345600C79E443A40708D0C56885
:100D3000540007FA04F6B5438E68A6402E43C660F9
:100D40000C7904F00304022C11D1D40800EB8406C2
:100D5000356A5407E40E0CFA04FE25EA0E05D1F8B4
:100D600010E00EFA04FE4EEA050EC6F820E0056813
:100D7000540007FA04F6B5430E7906F00306A640C0
:100D80002E4306604C6814F4403F67D0374C25680A
:100D900045F480452560246804F480440094344C74
:100DA00022F003052E19D6F8085894074FEA147E4E
:100DB0000CFA0EF4A5432F4CA04201D1002424E0EC
:100DC0002D4CA04202D101241FE047E02B4CA04251
:100DD00001D1022419E02A4CA04201D1032414E0DD
:100DE000284CA04201D104240FE0274CA04201D19D
:100DF00005240AE0254CA04201D1062405E0244C3C
:100E0000A04201D1072400E0082404FA0EF42C4388
:100E1000C6F80848D9F800409C434D68ED0200D55B
:100E20001C43C9F80040DAF800409C434D68AD020D
:100E300000D51C43CAF80040DBF800409C434D68D5
:100E4000AD0300D51C43CBF80040074D083D2C688E
:100E50009C434E68F60300D51C432C60521C102A9C
:100E6000FFF43EAFBDE8F88F083C01404438024033
:100E7000003001400000024000040240000802402F
:100E8000000C024000100240001402400018024012
:100E9000001C02400069084201D001207047002078
:100EA0007047426921EA02030A4043EA0241816134
:100EB0007047002A01D08161704709048161704741
:100EC00001480068000C7047002004E00148806879
:100ED000704700001000002010B50B48016841F475
:100EE00000710160016841F480610160016841F4B2
:100EF00080710160032000F059F80F2000F006F81F
:100F000000F026F8002010BD003C024070B50446F9
:100F10000D4D4FF47A712878B1FBF0F00B49096858
:100F2000B1FBF0F000F09EFB08B1012070BD102C69
:100F300007D200222146501E00F018F86C600020F5
:100F400070BD012070BD00001000002000000020D6
:100F50007047002809DB00F01F0201219140400981
:100F6000800000F1E020C0F800117047F0B40D4699
:100F70000D4B1B68C3F30223C3F10704042C00D9F3
:100F80000424191D072901D2002300E0DB1E0126DD
:100F900006FA04F1491E294099409E40761E1640EB
:100FA0003143F0BC01F02DB90CED00E000F0070179
:100FB000054A10684FF6FF03184040EA0120034934
:100FC00008431060704700000CED00E00000FA05D7
:100FD0002DE9F04704460D46002C13D0DFF8289188
:100FE000D9F80000EFB200F00700A8420CD289F84F
:100FF0000070D9F8000000F00700A84204D00120DA
:10100000BDE8F0870120FBE72068404E810712D53C
:10101000400703D5306840F4E05030602078000786
:1010200003D5306840F4604030603068A16820F03B
:10103000F000084330602078C00731D03349606841
:101040000839012808D002280BD0032809D00968E4
:1010500089070BD40120D3E70968890306D401204E
:10106000CEE70968890101D40120C9E7316821F080
:10107000030101433160FFF729FF804641F2883ABE
:1010800007E0FFF723FFA0EB0800504501D903203C
:10109000B6E73068616800F00C00B0EB810FF0D16A
:1010A000D9F8000000F00700A84209D989F80070BB
:1010B000D9F8000000F00700A84201D001209FE706
:1010C0002078400705D53068E16820F4E0500843F7
:1010D00030602078000706D53068216920F4604030
:1010E00040EAC100306000F03FF83168084AC1F3BF
:1010F0000311515CC8400749086007480068FFF7C2
:1011000005FF00207CE70000003C02400838024058
:1011100086E3020800000020140000200148006857
:10112000704700000000002000B5FFF7F7FF0449FA
:101130000968044AC1F38221515CC84000BD000027
:101140000838024096E3020800B5FFF7E7FF0449BC
:101150000968044AC1F34231515CC84000BD000037
:101160000838024096E3020810B51748006810F0EE
:101170000C01164816D04310042912D0082911D1A9
:10118000114C241F216801F03F02216849020AD551
:101190002068C0F38810A0FB03010023FFF7E9F8E3
:1011A00009E0184610BD21680023C1F38811A1FB96
:1011B0000001FFF7DEF82168C1F30141491C490035
:1011C000B0FBF1F010BD0000083802400024F4002C
:1011D0002DE9F84F0446002C13D02078DFF8A083C7
:1011E000C007A8F1040556D008F104000168C1F356
:1011F000810101290CD00068C0F38100022803D0CE
:101200000DE00120BDE8F88FD8F80000400206D5B7
:10121000286880033FD5606870BB0120F2E76068F2
:10122000B0F5803F10D0B0F5A02F12D0286820F480
:1012300080302860286820F4802028606068E0B151
:10124000FFF744FE064614E0286840F4803028602A
:10125000F4E7286840F480202860286840F4803053
:101260002860EBE7FFF732FE801B642801D90320DA
:10127000C8E728688003F5D50DE0FFF727FE06468E
:1012800006E0FFF723FE801B642801D90320B9E79D
:1012900028688003F5D42078BA4F80074FF0000902
:1012A00048D5B748001D016811F00C0F08D0006840
:1012B000C0F38100022813D1D8F8000040020FD4F7
:1012C0002868800704D5E068012801D0012099E74B
:1012D0002868216920F0F80040EAC100286029E070
:1012E000E068B8B101203860FFF7F0FD064606E07F
:1012F000FFF7ECFD801B022801D9032082E7286854
:101300008007F5D52868216920F0F80040EAC1007F
:1013100028600FE0C7F80090FFF7D8FD064606E00A
:10132000FFF7D4FD801B022801D903206AE7286853
:101330008007F5D42078000729D5DFF844A2924829
:1013400061690AF1700A89B101210160FFF7BEFDF0
:10135000064606E0FFF7BAFD801B022801D90320EC
:1013600050E7DAF800008007F4D510E0C0F80090EC
:10137000FFF7ACFD064606E0FFF7A8FD801B02283C
:1013800001D903203EE7DAF800008007F4D4207882
:10139000400778D54FF0000A79483C300068C0001B
:1013A0000BD477483C30016841F0805101600068FF
:1013B00000F0805000904FF0010ADFF8D0B1DBF868
:1013C0000000C00514D4DBF8000040F48070CBF8B6
:1013D0000000FFF77BFD064606E0FFF777FD801B68
:1013E000022801D903200DE7DBF80000C005F4D581
:1013F000634EA0686C3601280FD0052812D03068E3
:1014000020F001003060306820F004003060A068F7
:10141000F8B1FFF75BFD834617E0306840F001004C
:101420003060F4E7306840F004003060306840F02D
:1014300001003060EBE7FFF749FDA0EB0B0141F243
:101440008830814201D90320DCE630688007F2D57C
:1014500010E0FFF73BFD834609E0FFF737FDA0EB07
:101460000B0141F28830814201D90320CAE630687D
:101470008007F2D4BAF1010F05D141483C30016830
:1014800021F080510160A069C0B33D49091D096880
:101490004FF0FF36C1F38101022946D0022805D062
:1014A000C7F86090FFF712FD04463AE0C7F8609075
:1014B000FFF70CFD814607E0FFF708FDA0EB0900F0
:1014C000022801D903209DE628688001F4D4D4E9DC
:1014D00007010843616AA26A890106EB520241EAE8
:1014E0000241084394F82C1040EA0160C8F800005B
:1014F00001203866FFF7EAFC044607E03DE0FFF70D
:10150000E5FC001B022801D903207BE62868800146
:10151000F5D532E0FFF7DAFC001B022801D90320E1
:1015200070E628688001F5D427E0012823D0D8F898
:101530000000E26900F4800191421AD1226A00F0B1
:101540003F01914215D147F6C071626A0140B1EB8B
:10155000821F0ED1A26A00F4403106EB5202B1EBB9
:10156000024F06D194F82C1000F07060B0EB016FC0
:1015700003D0012046E6012044E6002042E60000B8
:101580000438024000004742800E4742007000408D
:1015900070B504460E461546002C03D094F8490059
:1015A00010B107E0012070BD002084F848002046FB
:1015B00000F01EF804F108012068FFF7D7FA314661
:1015C000A2682068FFF706FBD4E901022946236BD5
:1015D000FFF7ACFAA168206850F8212042F0010220
:1015E00040F82120012084F84900002070BD00004F
:1015F00000B587B01848016841F00101016000683A
:1016000000F00100019014480838016841F0080119
:101610000160016801F008010191016841F01001C9
:101620000160006800F0100001904CF2037002901D
:10163000022003900121049105900C20069002A93C
:101640000648FFF73FFB4FF68070029002A904485E
:10165000FFF738FB07B000BD38380240000C0240ED
:101660000010024010B5401EB0F1807F01D3012070
:1016700010BD4FF0E02460610F21601700F0C1FD44
:101680000020A06107202061002010BD7047704736
:1016900010B50446002C03D094F83D0010B107E0CB
:1016A000012010BD002084F83C00204600F016F810
:1016B000022084F83D00211D206800F0BDFB0120C0
:1016C0003D3460726070A070E07020716071A07134
:1016D000E07120722070002010BD000008B5006885
:1016E0000B49884212D10B48016841F0100101609A
:1016F000006800F010000090002211463620FFF72D
:1017000035FCBDE808403620FFF723BC08BD0000CB
:10171000001000404038024090F83D10012901D0EF
:1017200001207047022180F83D100168CA6842F02C
:101730000102CA6000681449884214D0B0F1804F99
:1017400011D0124988420ED0114988420BD011495C
:10175000884208D01049884205D01049884202D0FA
:101760000F49884209D1816801F00701062908D094
:10177000016841F00101016003E0016841F00101ED
:10178000016000207047000000000140000400409C
:1017900000080040000C00400004014000400140EF
:1017A00000180040704770B50446206801694FF08A
:1017B0000005C943890716D4C168C943890712D4F3
:1017C000E91E01610120207720688069800703D02D
:1017D0002046FFF7E7FF05E0204600F09BF8204693
:1017E00000F099F8257720680169C943490718D4A2
:1017F000C168C943490714D46FF004010161022094
:1018000020772068806910F4407F03D02046FFF7DE
:10181000C9FF05E0204600F07DF8204600F07BF887
:10182000257720680169C943090717D4C168C943EE
:10183000090713D46FF008010161042020772068A4
:10184000C069800703D02046FFF7ACFF05E02046C3
:1018500000F060F8204600F05EF825772068016906
:10186000C943C90618D4C168C943C90614D46FF066
:1018700010010161082020772068C06910F4407FC2
:1018800003D02046FFF78EFF05E0204600F042F827
:10189000204600F040F8257720680169C943C90750
:1018A00008D1C168C943C90704D1891E0161204616
:1018B00000F032F820680169C943090609D4C168FB
:1018C000C943090605D46FF0800101612046FFF786
:1018D000DDFE20680169C943490609D4C168C943CE
:1018E000490605D46FF040010161204600F044F83C
:1018F00020680169C94389060BD4C168C9438906B8
:1019000007D46FF0200101612046BDE87040FFF769
:10191000BEBE70BD7047704770B50446124920685E
:10192000884202D1012024F0D7FA10498C421AD102
:101930000F4A104D00231088C0F30E042B5540F4BD
:10194000004010800A68981E10610868016A41F220
:101950001112114207D1016A9210114203D101689C
:1019600021F00101016070BD00100040E8D10120AC
:10197000D4020020C0D30120704770477047000098
:10198000F8B5044622681068D168536900F00F0664
:10199000002E08D1850606D58D0604D52046BDE863
:1019A000F84000F0EBBA0025002E66D003F00106E7
:1019B00001F49077374360D0C20705D0CA0503D53C
:1019C000226C42F001022264420705D5DA0703D0F7
:1019D000226C42F002022264820705D5DA0703D0A6
:1019E000226C42F004022264020707D501F02002B3
:1019F000324303D0226C42F008022264226C002A97
:101A000031D0800604D5880602D5204600F0B6FA0B
:101A100020684069C0F38010216C090700D438B3F6
:101A2000204600F077FA2068406940061CD52068FF
:101A3000143050E8001F21F0400140E80012002A55
:101A4000F5D1A06B60B157490165A06BFFF728F98C
:101A5000002808D0A06B016D01B0BDE8F040084738
:101A60002046FFF78BFFF8BD2046FFF787FFF8BD44
:101A70002046FFF783FF2564F8BD236B012B7ED141
:101A8000C3067CD5CB067AD51068506800905069A3
:101A90004FF02003400643D5A16B0868406880B230
:101AA0000028E9D0A28D8242E6D9E085C869B0F568
:101AB000807F2DD020680C3050E8001F21F4807109
:101AC00040E80012002AF5D12068143050E8001FC9
:101AD00021F0010140E80012002AF5D120681430FD
:101AE00050E8001F21F0400140E80012002AF5D123
:101AF00084F83E30256320680C3050E8001F21F048
:101B0000100140E80012002AF5D1A06BFFF781F820
:101B1000A08DE18D401A81B22046FFF72EFFF8BD5F
:101B2000A08DE18D401A81B2E08D0028F7D0002908
:101B3000F5D020680C3050E8002F22F4907240E875
:101B40000026002EF5D12068143050E8002F22F036
:101B5000010240E80026002EF5D184F83E302563CE
:101B600020680C3050E8002F22F0100240E80023DB
:101B7000002BF5D12046FFF700FFF8BDFFE7020676
:101B800006D50A0604D52046BDE8F84000F002BBA1
:101B90004006F2D54806F0D52046BDE8F84000F0F2
:101BA000E0B90000051F000870B50446002C04D001
:101BB00094F83D00002510B106E0012070BD84F8C6
:101BC0003C50204600F022F8242084F83D00206894
:101BD000C16821F40051C160204600F033FA20684A
:101BE000016921F4904101612068416921F02A01D5
:101BF00041612068C16841F40051C1602564202022
:101C000084F83D0084F83E00002070BD30B587B0F8
:101C100000681F49884238D11E48016841F0100110
:101C20000160006800F0100001901A481438016843
:101C300041F001010160016801F0010101910168B9
:101C400041F001010160006800F0010001904FF4D3
:101C50000070029002200390012104910590072456
:101C600006940D4D02A92846FFF72CF8291502917C
:101C7000069402A92846FFF725F82520FFF769F901
:101C8000032211462520FFF771F907B030BD00008F
:101C900000100140443802400000024090F83E30FD
:101CA000202B01D00220704759B152B190F83C303E
:101CB000012B08D0012380F83C300023036300F09F
:101CC0004BBA0120704702207047000070B50446EF
:101CD00040480025404E844223D131783FA0FEF792
:101CE000BFFBB188080417D4480408D530780A2807
:101CF00001D0B58010E041F40040B0800CE03078B5
:101D00000D2823D0364BC1F30D029854491C88B2DC
:101D1000B080C72800D9B58001222F492D48FFF790
:101D2000BDFF2C48443084422AD12D4AB078C832B5
:101D300080B170781070F088401CF08026492548EA
:101D40000122491C4430FFF7A9FF19E041F480400B
:101D5000B080E1E7F18808040BD470785A281BD0D2
:101D6000C1F30E03D054491C88B2F080C72800D9B3
:101D7000F580194917480122491C4430FFF78EFFAE
:101D800014488830844223D13089C82814D2154998
:101D90000A68556220B108E041F40040F080E8E7AD
:101DA00009680A6842F001020A60F278411C318138
:101DB0000849C8390A5402E040F40040308106491D
:101DC000BDE8704003480122C91C8830FFF766BF98
:101DD00070BD000088D40120CC02002025630000E3
:101DE00030D20120E8D101207047FEE7FEE77047BE
:101DF00010B5502080F31188BFF34F8FBFF36F8F62
:101E00002BF0AEFF18B104494FF08050086000205D
:101E100080F3118810BD000004ED00E00248016865
:101E200041F470010160704788ED00E00148FFF760
:101E3000BABC00009C0300202DE9F0410268264D49
:101E4000264E274FDFF89CC0274B4FF08048A84212
:101E500009D0404507D0B04205D0B84203D0604514
:101E600001D0984203D122F070044A682243A8426C
:101E70001BD0404519D0B04217D0B84215D06045AC
:101E800013D0984211D0194CA0420ED0184CA04249
:101E90000BD0184CA04208D0174CA04205D0174CCC
:101EA000A04202D0164CA04203D122F44074CA686A
:101EB00022434C6922F08002224302608A68C26297
:101EC0000A688262A84201D0984201D1096901637F
:101ED00001214161BDE8F0810000014000040040A3
:101EE00000080040000C0040000401400040014098
:101EF000004401400048014000180040001C004020
:101F00000020004010B5806B0021C185C184FFF71F
:101F100035FD10BD01680C3151E8002F22F490729C
:101F200041E80023002BF5D10168143151E8002F5E
:101F300022F0010241E80023002BF5D1016B0129B9
:101F400009D101680C3151E8002F22F0100241E85C
:101F50000023002BF5D1202180F83E1000210163E1
:101F6000704710B50168CA6822F04002CA6020219B
:101F700080F83D10FFF738FF002010BD08B590F83D
:101F80003E10222901D0022008BD82684FF4805300
:101F90009A4201D1016921B1816A9A421DD052B1A0
:101FA0000BE0816A02685268C2F308020A80816A03
:101FB000891C816209E002697AB10268526802F004
:101FC0007F020A70816A491C8162C18D491E090421
:101FD000090CC18505D0002008BD026852680A704E
:101FE000F0E70168CA6822F02002CA600168CA6886
:101FF00022F48072CA6001684A6922F001024A61D3
:10200000202180F83E10016B012903D0FFF75EFE0E
:10201000002008BD0021016301680C3151E8002F48
:1020200022F0100241E80023002BF5D101680A6874
:10203000D20602D50A6849680091818DFFF79DFCA0
:10204000E6E700002DE9F041044620680169E268F6
:1020500021F4405111430161A1682069E269014303
:102060006069104301432068C26849F20C639A43D7
:102070000A43C26020684169A26921F4407111439A
:10208000416133492068884202D03249884202D1F6
:10209000FFF75AF801E0FFF747F8E1690023192735
:1020A00064253226B1F5004F28D061688B0F8A0075
:1020B000A0FB0701FEF75DF90146B0FBF5F07A429F
:1020C000504301EB800006EB0010B0FBF5F000F090
:1020D000F002B1FBF5F002EB0012B1FBF5F07B4230
:1020E000584301EB800006EB0010B0FBF5F02168CF
:1020F00000F00F0010448860BDE8F08161684A1864
:10210000A0FB07015B41FEF734F90146B0FBF5F097
:102110000201B1FBF5F06FF01803584301EB8000AA
:1021200006EBC000B0FBF5F000F0F80002EB400257
:10213000B1FBF5F0584301EB800006EBC000B0FBAB
:10214000F5F0216800F0070010448860D4E7000033
:10215000001001400014014081628285C285002187
:102160000164222280F83E2080F83C100169002999
:1021700004D00168CA6842F48072CA6001684A6982
:1021800042F001024A610068C16841F02001C1606B
:102190000020704790F83D10212901D0022070479F
:1021A0008168B1F5805F01D1016961B1016A4A1CA2
:1021B0000262026809785160C18C491E0904090C49
:1021C000C1840AD013E0016A02680988C1F30801DA
:1021D0005160016A891C0162EEE70168CA6822F059
:1021E0008002CA600068C16841F04001C1600020FF
:1021F000704700000148FFF7C3BB0000F802002051
:10220000FEE70907090E002804DB00F1E02080F852
:102210000014704700F00F0000F1E02080F8141D5A
:10222000704770B5044600256FF02F0608E020685F
:10223000411C2160007805EB850106EB4101451842
:102240002068007800F004F80028F0D1284670BD1E
:102250003038092801D801207047002070473038F5
:102260000A2801D2012070470020704710B5442190
:10227000074800F0BEFE00221E21064823F086FE1D
:10228000054CA06002F0A8F80020207010BD0000EE
:10229000EC1E00208D440008940100202DE9FC4133
:1022A00007460D4616463146284600F022F940B151
:1022B00000223146284600F0BCF828B10020BDE8D5
:1022C000FC814FF0FF30FAE70024284613F00AFAA9
:1022D000401E0FFA80F8284613F0A7F9401E02B2FC
:1022E0007088B5F90210401A00B200280FDD2B8863
:1022F000ADF80030ADF80210AB88ADF804300844FA
:10230000ADF8060000983860019801247860B6F9AD
:1023100006006988411A511A09B2002917DDB5F97A
:102320000620904213DA2A88ADF80020ADF80200AA
:10233000AA88ADF804200844ADF80600204607EB53
:10234000C00000990160641C019964B24160B6F953
:102350000200B5F90210884200DC0846B6F9061002
:10236000B5F90620914200DB1146091A09B23288FC
:10237000B5F90030D21A12B2002A14DD002912DD9C
:10238000ADF80030ADF802001A44ADF80420421850
:10239000ADF80620224607EBC202009B1360641CC6
:1023A000019B64B25360B6F904202B88D31AA8EBC2
:1023B00003031BB2002B12DDADF80020ADF80200C4
:1023C0001A44ADF804200844ADF80600204607EB97
:1023D000C00000990160641C019964B2416020460C
:1023E0006DE770B5B1F90040B2F900309C4200DDF4
:1023F00023460380B1F90240B2F90250AC4200DC3E
:102400002C464480B1F90460B2F90450AE4200DABF
:1024100035468580B1F90610B2F90620914200DBFD
:102420001146C1800120AB4201DC8C4200DD00205E
:1024300070BDF8B504460D4616460020B4F90010EC
:10244000B5F90020914212DBB4F90220B5F902304F
:102450009A420CDBB4F90420B5F904309A4206DC48
:10246000B4F90620B5F906309A4200DC012088B3A1
:102470008EB3ADF800106088ADF8020032466946B0
:10248000284600F0ACF838B3A088ADF800006088AA
:10249000ADF8020032466946284600F0A0F810B3B5
:1024A0002088ADF80000E088ADF8020032466946A9
:1024B000284600F094F8C0B1A088ADF80000E0888C
:1024C000ADF8020032466946284600F088F870B13F
:1024D0000120F8BD01E002E003E00020F9E701205F
:1024E000F7E70020F5E70020F3E70020F1E7002000
:1024F000EFE7B0F90020B1F904309A4213DCB0F9EB
:102500000420B1F900309A420DDBB0F90220B1F994
:1025100006309A4207DCB0F90600B1F90210884291
:1025200001DB0120704700207047F8B504460D46D6
:102530001646B4F90400B5F90010884211DBB4F96D
:102540000600B5F9021088420BDBB4F90000B5F9BA
:102550000410884205DCB4F90210B5F90620914256
:1025600001DD0120F8BD66B1ADF800006088ADF86E
:10257000020032466946284600F031F818B10020C2
:10258000F8BD0020F8BDA088ADF800006088ADF867
:10259000020032466946284600F021F808B10020C2
:1025A000F8BD2088ADF80000E088ADF802003246A2
:1025B0006946284600F013F808B10020F8BDA0884D
:1025C000ADF80000E088ADF80200324669462846C2
:1025D00000F005F808B10020F8BD0120F8BD2DE994
:1025E000FC4105460F4614460020B7F90010B5F926
:1025F000002091420EDBB5F9042091420ADCB7F9C4
:102600000210B5F90220914204DBB5F9062091428F
:1026100000DC012020B1002C04DC0120BDE8FC819D
:102620000020FBE7284613F05DF800EBD070461061
:10263000284612F0FAFF00EBD0704010864200DA14
:102640003046844200DD04462888ADF80000288822
:102650002044ADF804006888ADF802006888204482
:10266000ADF80600002239466846FFF7B8FF70B1A2
:10267000BDF804002044ADF80400BDF80600204475
:10268000ADF806003946684620F0CCFDC6E7E8887C
:10269000001BADF80200E888ADF8060000223946BC
:1026A0006846FFF79CFF70B1BDF804002044ADF808
:1026B0000400BDF80200001BADF802003946684670
:1026C00020F0B0FDAAE7A888001BADF80000A8889C
:1026D000ADF80400002239466846FFF780FF70B16C
:1026E000BDF80000001BADF80000BDF80200001BA3
:1026F000ADF802003946684620F094FD8EE7688800
:10270000ADF8020068882044ADF806000022394682
:102710006846FFF764FF70B1BDF80000001BADF81C
:102720000000BDF806002044ADF8060039466846B2
:1027300020F078FD72E7012070E710B5B1F90030A4
:10274000B2F90040A34200DB23460380B1F9023016
:10275000B2F90240A34200DB23464380B1F90440B2
:10276000B2F904309C4200DD23468380B1F90610A3
:10277000B2F90620914200DC1146C18010BD000074
:10278000F8B5044623F09EFB074600250095364E1B
:102790002CB1E0687060204623F0CEFC02E015F01A
:1027A000E9F970607068006920F024FC7068406985
:1027B00008B120F01FFC7068C06920F01BFC706835
:1027C000006A20F017FC7068016991B120F0E4FD07
:1027D00026F0F0F825F008FE7068B0F85011D9B373
:1027E0000068017CC9071DD0C0684068D0B10024D2
:1027F00013E0A0F85051F8BD011991F8301151B90A
:1028000000F5AC7000F055FC716801EBC4010A6B77
:102810000260496B4160641CA4B27068B0F850114A
:10282000A142E9D870684FF4807130301BF0DFFDB1
:102830007068202100F598701BF0D9FD7068A0F831
:102840005051384623F032FB009070680068436AAC
:1028500013B13268009998471BF044FC00F030F83F
:10286000BDE8F84000F002B85400002070B5002424
:10287000084EC4EBC40556F8250008B11BF0A8FCAF
:1028800006EB85001C211BF0B2FD641CE4B2042C95
:10289000EFD370BDC81F0020084949680AE04A68A4
:1028A000824202D00A68824203D10A7E42F00102CB
:1028B0000A7649690029F2D17047000028000020FB
:1028C000704700000421014800F093BBE01E002087
:1028D0002021014800F08DBBF81E00202DE9FF41AA
:1028E0000446DDE90A671D460020002D02D1B6F539
:1028F000807F2BD00090019002900390ADF80410DF
:10290000ADF80A20ADF80C10ADF80E203B4632466B
:102910002946684620F0E2FB3B463246294601A89C
:1029200020F0DCFB3B463246294602A820F0D6FBCD
:102930003B463246294603A820F0D0FBBDF90000F3
:10294000BDF90410884209DA054608E0208060805D
:10295000491EA180521EE280BDE8FF810D46BDF9EF
:102960000820BDF90C309A4201DA164600E01E46F6
:10297000B54203DA884206DB084604E09A4201DAEF
:10298000104600E01846801E2080BDF90020BDF9E9
:102990000400824201DD154600E00546BDF908103D
:1029A000BDF90C30994201DD0E4600E01E46B542ED
:1029B00003DD824206DD104604E0994201DD08464F
:1029C00000E01846801CA080BDF90220BDF9063049
:1029D0009A4201DA154600E01D46BDF90A10BDF91C
:1029E0000E00814201DA0E4600E00646B54205DAE5
:1029F0009A4201DA104604E0184602E0814200DA09
:102A00000846801E6080BDF90200BDF9063098427C
:102A100001DD054600E01D46BDF90A10BDF90E2096
:102A2000914201DD0E4600E01646B54203DD9842B4
:102A300006DC184604E0914201DD084600E010463D
:102A4000801CE08088E70000F7B506461746114C69
:102A500023F038FA05463B4631462046019A19F0E4
:102A600085FB20B10020A062E06948B10CE02C2178
:102A700020461BF0BCFC4FF00040A0620020FEBDD1
:102A8000284623F013FAE061E06908B90120E0610B
:102A90002046FEBD1C1F002010B514210C4800F07C
:102AA000A8FA19F023FB02468AB10A49104619F028
:102AB000D6FB0949104619F0D4FB0849104619F015
:102AC000D2FBBDE810400649104619F0C6BBFEE730
:102AD000041F002069BA01085DBE010855C0010845
:102AE00035BA010870B504460D46102128461BF082
:102AF0007EFC20680078012804D0022807D0042832
:102B000008D009E0A08A2880E08A688004E0E068B4
:102B1000686001E00A20686020684268002A03D0EB
:102B20002946BDE87040104770BD2DE9FE430446BC
:102B3000A08A002802D1E08A002873D0D4F82C8023
:102B4000B8F1000F11D120460AF0EBFF80465FEA92
:102B5000080067D020460DF099FD0022092140466B
:102B600018F080F9607880075CD400274FF48079F2
:102B70004E46454613E0002128461EF04AFA3844E6
:102B800007B2002128461EF062FAC11700EB11605F
:102B90000012704306B228461DF0D2F90546002DFA
:102BA000E9D10FB94E450CD0784201B24FF48030D4
:102BB00090FBF6F002B200956B4604F1140020F091
:102BC0008DFA0295019594F8400000F00F0003285B
:102BD00016D040461DF014FB064640461DF0C0F9D5
:102BE00003460C200090B4F91610324640460AF015
:102BF00031FB019040461DF005FAC10713D017E0E4
:102C000040461DF08BFA064640461DF025FA024666
:102C100003200090B4F91410334640460AF01AFB22
:102C20000290E7E732E0BDF90810002900DD0295C7
:102C3000810704D4BDF90810002900DA0295410784
:102C400004D4BDF90410002900DD0195000704D467
:102C5000BDF90400002800DA019501AA02A9204666
:102C600026F06CFCBDF90420BDF90810404600F0C8
:102C7000ADFA6078800709D4208BBDF808100844AD
:102C80002083608BBDF8041008446083BDE8FE8398
:102C90002DE9FC5F0446D4F82C80B8F1000F7DD0FC
:102CA00094F84000000779D019F010FD01900198C8
:102CB0000068467E402140461EF0F7FA002708B91A
:102CC000E783A78340461DF089FA814640461DF000
:102CD0008EFA054694F84000642100F00F0041F69A
:102CE000FF7ACAF1000B0C2802D003283DD05CE02B
:102CF000A783D5B1204626F06AFC0090E7836A4698
:102D00000021204626F01AFCBDF9003052465946F3
:102D100040460BF0BBF8BDF800100123084402B296
:102D2000002140461FF090FC3FE0B4F91E00C6F1C0
:102D30006402504390FBF1F0E08340461DF010F92F
:102D4000064640461DF05CFA02460C200090B4F99D
:102D50001E10334640460AF07DFAE0830246002307
:102D6000194640461FF070FC1FE0E783B9F1000FE1
:102D700023D0204626F014FC0090A7830022694649
:102D8000204626F0DBFBBDF900305246594640464E
:102D90000AF0F4FFBDF80010084400E078E001B24A
:102DA0000123002240461FF04FFCA08B00286FD16A
:102DB000E08B00286CD105B33CE0B4F91C00C6F1EF
:102DC0006402504390FBF1F0A08340461DF044F9AB
:102DD000064640461DF0A2F9034603200090B4F9D0
:102DE0001C10324640460AF035FAA0830146002303
:102DF0001A4640461FF028FCD7E740461DF000FA6F
:102E0000054640461DF0ACF8002D01DC002811DD20
:102E1000002D06DA01232A46002140461FF014FC4B
:102E200008E0002806DA404202B2012300214046B1
:102E30001FF00AFCB9F1000F1CD140461DF00CF93F
:102E4000054640461DF06AF9002D01DC002811DD21
:102E5000002D06DA01230022294640461FF0F4FB2C
:102E600008E0002806DA404201B201230022404671
:102E70001FF0EAFB0A214046019A17F0F3FF607841
:102E8000800705D42C34207D20F00F0020752760AA
:102E9000BDE8FC9F7FB504460D46002C02D114F01E
:102EA00069FE0446002C31D0204614F0E0FE0028D4
:102EB0002CD094F82800400728D400263DB3ADF864
:102EC0000860ADF80A60204614F06AFE401EADF8B6
:102ED0000C00204614F0B5FE401EADF80E0002AA0C
:102EE00029466846FFF77DFA00280FD02068017C4C
:102EF00089070FD5DDE90201C4E90C010120A4F81E
:102F000050016068002801D023F022F97FBDA4F8A9
:102F100050617FBD82690AB16946904700250AE089
:102F200004EBC501303100226846FFF782FA002821
:102F3000EFD16D1CADB2B4F85001A842F0D8B4F88E
:102F40005001202806D204EBC0003030694612F050
:102F5000E8FA06E0A4F8506104F1300002A912F08A
:102F6000E0FAB4F85001401CA4F850016068002851
:102F7000CFD023F0EDF87FBD70B50646304600F0A7
:102F800012F804460CE02146304600F023F80546CE
:102F90002146304600F0B8F820461BF019F92C46BF
:102FA000002CF0D170BD002801D04068704700208F
:102FB000704700B5034600221846FFF7F4FF0146AC
:102FC00004E0521C184600F005F801460029F8D12B
:102FD000104600BD0068091D08440068704700687D
:102FE000084400687047002801D0806870470020BE
:102FF0007047002242608260C91C21F00301016019
:10300000704770B50446206808301BF051F805463B
:103010009DB100222946204624F05BF9294620462E
:10302000626824F04DF9616819B12A46204624F0FF
:1030300050F96560A06800B9A560284670BD2DE90B
:10304000F04106460D46002E0BD055B13046FFF735
:10305000AAFFA8420AD13046FFF7D3FF04461CB1AD
:1030600023E00020BDE8F0810020FBE73068083055
:103070001BF01EF80446D4B129463046FFF7AFFFD7
:10308000074622463946304624F01AF93A46214688
:10309000304624F01EF922462946304624F019F91C
:1030A0002A462146304624F00BF92046DAE7002074
:1030B000D8E770B50446206808301AF0F9FF0546D5
:1030C0009DB100222946204624F0FAF829462046E0
:1030D000A26824F0FEF8A16819B12A46204624F01F
:1030E000EFF8A560606800B96560284670BD0028EB
:1030F00002D0416811B103E001207047806808B137
:10310000002070470120704770B504460B46002C24
:1031100013D02046FFF747FF002298420ED11946F0
:103120002046FFF757FF606030B101462046BDE8FA
:103130007040002224F0CDB8A26070BD2046FFF799
:1031400052FF98420ED119462046FFF748FFA06073
:1031500030B101462046BDE87040002224F0B0B8EE
:10316000626070BD19462046FFF739FF05461946D3
:103170002046FFF72FFF064632462946204624F018
:103180009FF82A4631462046BDE8704024F0A1B899
:1031900010B50446206882680AB12146904720682D
:1031A0000068002801D02060F4E710BD8068002886
:1031B00002D0B0F9160070470020704780680028E0
:1031C00002D0807E800970470020704770B50646A7
:1031D0000C46154654EA05001CD030461BF00EFF85
:1031E000B068018A21440182B068418A2944418241
:1031F00001232A46214630461EF02DFC00220B21D9
:10320000304617F02FFE012803D130461EF06DFB2B
:10321000012070BD012070BDF7B582B005460E4695
:10322000049F002D1ED02846314662221DF01DFE4F
:1032300001900446200012D0206880B12846314613
:1032400063221DF012FE0190C2B242B123683946DA
:10325000204698470190BDF80400ADF8100004988E
:1032600005B0F0BD3846FBE72DE9F04794B00546C0
:103270001C9C0F4691461E46688C40F004006884F2
:10328000A5F820902289394628461DF0EEFD824699
:1032900013902E842289394628461DF0E6FD80468B
:1032A0001290698C21F004016984824505D1BDF832
:1032B0004C00BDF8481088426AD0A5F820902289B9
:1032C000394628461DF0D1FD824613902E8439469A
:1032D00028460CF02CF921890068524621F01AFC8E
:1032E00020890B2825D147F6FF79CA4501D0C8456A
:1032F0001FD128461DF090FF00EBD07046102846E5
:103300001CF0DFFD00EBD07040101399494506D149
:10331000711C421C914200DA00E0411C1391C84527
:1033200007D1711C421C914201DA701C00E0401C64
:1033300012901948FFF765FE064666B31398F060D1
:103340001298306135602089B080B76001A811F013
:1033500011FB019611480290114803901148049006
:103360000020FF2109900A900B9120880C90608822
:1033700040420D90E068089000209DF8461060F3F0
:1033800000018DF846102069079001A811F06CFB30
:1033900014B0BDE8F087FEE7101F00206DC90208D9
:1033A000A1CB0208F1CA020814210148FFF721BE8F
:1033B000101F00202DE9F84F07468846914600254A
:1033C00000264FF0040A1AE1F8680AEBC6014058DB
:1033D000810175D420F07F401FF0D5FD30EA08014F
:1033E00012D0002130EA090010D00020814267D0BD
:1033F000F86850F836B000246A461021584621F08B
:10340000A3F828B101248BE00121EBE70120EDE7CF
:103410006A461121584621F097F808B101247FE04F
:103420006A461221584621F08FF808B1012477E04E
:103430006A461321584621F087F808B101246FE04D
:103440006A461521584621F07FF808B1012467E04B
:103450006A461421584621F077F808B101245FE04C
:103460006A460A21584621F06FF808B1012457E056
:103470006A466B21584621F067F808B101244FE0F5
:103480006A466C21584621F05FF808B1012447E0F4
:103490006A460121584621F057F808B101243FE05F
:1034A0006A460421584621F04FF808B1012437E05C
:1034B0006A460221584621F047F810B101242FE056
:1034C0009CE06A460321584621F03EF808B10124E9
:1034D00026E06A460521584621F036F808B1012455
:1034E0001EE06A460621584621F02EF808B1012454
:1034F00016E06A463221584621F026F808B1012428
:103500000EE06A466E21584621F01EF808B10124EB
:1035100006E06A466D21584621F016F800B10124F4
:1035200014B10320BDE8F88F6A466921584621F09E
:103530000BF808B1022561E06A466A21584621F07D
:1035400003F808B1022559E06A466E21584620F07A
:10355000FBFF08B1022551E06A466D21584620F074
:10356000F3FF08B1022549E06A463721584620F0AA
:10357000EBFF08B1022541E06A463821584620F0A9
:10358000E3FF08B1022539E06A463521584620F0AC
:10359000DBFF08B1022531E06A464021584620F0A1
:1035A000D3FF08B1022529E06A464521584620F09C
:1035B000CBFF08B1022521E06A464121584620F0A0
:1035C000C3FF08B1022519E06A464221584620F09F
:1035D000BBFF08B1022511E06A464321584620F09E
:1035E000B3FF08B1022509E06A464921584620F098
:1035F000ABFF08B1022501E005B90125761C788CE6
:10360000C0F3C500B0423FF6DFAE28468AE70000AF
:103610000148406870470000540000207047C0F324
:103620000410072800D90720C0B27047A0F57F41D9
:10363000FF3905D030B1712806D20A49085C7047BD
:103640001F20704700207047713880B20649096812
:1036500029B1064A5268904201D2085C70470020A6
:103660007047000044230308C0010020D40100205B
:1036700010B518210348FFF7BCFCBDE8104001203D
:1036800022F0B6BCBC1E00202DE9F04104460D46D8
:103690001746002C1AD02046FDF74AF80646DFF8F8
:1036A000308029462046D8F8082090470546D8F8AB
:1036B000082060193946904701462846721A03E0EF
:1036C0004318E35C2354401C8242F9D2BDE8F081E8
:1036D000F00100202DE9F04180460C4615461F46BA
:1036E000084E3946404672689047206028B13868D5
:1036F000726840440021904700E000202860BDE847
:10370000F0810000F00100202DE9F04F87B0044661
:10371000DDE910588A4693461E464FF00009002DF9
:1037200001D0A5F800906CB1207878B1BAF1000F03
:103730000ED0002708F0020008F0040108431AD058
:10374000002008E0002007B0BDE8F08F0020FAE775
:103750000020F8E7401C215C0A2903D00D2901D084
:103760000029F7D1215C01B1401C002DEBD04FF0B6
:10377000FF312980E7E75FEA887001D541F6FF76DF
:10378000CDF81890CDF8149023E0CDF8109005985E
:1037900038B3002106AA04ABCDE90221CDE90083AC
:1037A000204433465A46514622F00EFE0499721ABE
:1037B00016B239440FB288B10599084405902178B2
:1037C0000A290BD00D2909D0205C0A280BD00D281E
:1037D00009D00598205C08B1002ED6DC059830B1E0
:1037E00011E00121D6E70598401C0590F6E7084A4C
:1037F00005A9204652689047014625B1002250464F
:1038000017F055FC07B205B12F8005989BE7000023
:10381000F00100202DE9F041064688461746002EAB
:1038200021D0002F1FD03046FCF782FF04463846D7
:10383000FCF77EFF0546280015D02C440B4A414674
:103840003046926890470146481903E0621BB25C1B
:103850003255641EA042F9D970182A463946BDE88F
:10386000F0411AF08CBDBDE8F0810000F0010020AD
:1038700010B5002223290ED103782BB10024012B8F
:1038800005D0022B05D006E00122027003E004708F
:1038900001E0047001220378012B04D1202901D119
:1038A000022101700122104610BD2DE9F34182B0C2
:1038B0000746039E334600213A46084623F00AF89D
:1038C00005464FF00008CDF80480681C1AF0F0FBA4
:1038D00004465CB104F8058033463A46691C20462C
:1038E00022F0F8FF04B02046BDE8F081FEE72DE9A4
:1038F000F04781460D4614461F46DDF8208012E051
:10390000660806FB075A51464846C047002808DDAE
:1039100044F30000C0EB5404A4F101040AEB0705D2
:1039200001E005DA3446002CEAD12046BDE8F087F4
:103930005046FBE72DE9FF5FDDE910BCDDE912A78A
:10394000DDE90E64149D4FF030085FEA85791ED4DE
:103950006FB15FEAC5790AD005F00C0959EA0B0985
:1039600005D07F1E03E0A146641C06F8098054457B
:1039700006D2202CF7D303E0A146641C06F8098088
:103980005FEAC57903D0BC4201D2202CF4D35FEAB0
:10399000C5693CD55FEA45590AD44CB1544501D0BC
:1039A000BC4205D1641E1CB1BCF1100F00D1641ED5
:1039B000BCF1100F0BD15FEA856908D4202C06D228
:1039C000A4464FF07809641C06F80C9019E0BCF18D
:1039D000100F0BD15FEA856908D5202C06D2A446CA
:1039E0004FF05809641C06F80C900AE0BCF1020F75
:1039F00007D1202C05D2A4464FF06209641C06F8BA
:103A00000C90202C03D2A446641C06F80C80202CB9
:103A10001CD2BBF1000F06D0A4464FF02D08641C49
:103A200006F80C8012E05FEA457C06D5A4464FF00C
:103A30002B08641C06F80C8008E05FEA057C05D5BD
:103A4000A4464FF02008641C06F80C80CDE90275EE
:103A5000CDE9006400F087F804B0BDE8F09F2DE9DF
:103A6000F04F8FB0DDE91BABDDE919971D9E189C67
:103A70000025002C01D126F010065FEA465C0DF10E
:103A80001C0800D5FCB1B4FBF7FC07FB1C4C0CF088
:103A9000FF0CBCF10A0F02D20CF1300C0AE05FEA15
:103AA000866E02D54FF0410E01E04FF0610EF444F6
:103AB000ACF10A0CAE466D1C08F80EC0B4FBF7F46E
:103AC0000CB1202DDFD3CDE904ABCDE90085CDE9E4
:103AD00002970696FFF72EFF0FB0BDE8F08F2DE995
:103AE000FF4F8FB0DDE91D1BDDE922A9DDE920567E
:103AF000249F1C98002450EA010201D127F01007EE
:103B00007A050DF11C0802D550EA010218D02A46A8
:103B10003346FCF72EFCD2B20A2A01D2303206E03C
:103B2000BB0601D5412300E061231A440A3A23462B
:103B3000641C08F8032050EA010201D0202CE6D3CF
:103B4000CDE904A9CDE90084CDE902B50FA8069717
:103B50000FC8FFF7EFFE13B0BDE8F08F9A4200D216
:103B60008854704770472DE9FF5F0746DDE90EB5C1
:103B7000DDE910891446A24609F0020009F00101AE
:103B8000084313D12E4606E02246641C2020039BE6
:103B90000199B847761C4645F6D307E02246641CD7
:103BA0006D1E039B1BF805000199B847002DF5D148
:103BB0005FEA897006D409E02246641C2020039B3A
:103BC0000199B847A4EB0A004045F5D304B020465C
:103BD000BDE8F09F704700002DE9FF4F89B0804697
:103BE00000250A98002801D1DFF8DC844FF0000995
:103BF000D0E0252808D0DDE90A132A466D1CC0470D
:103C00000C98401C0C90C5E0491C0C9100240C98A9
:103C100001782B2923D004DC202926D0232904D1A4
:103C200029E02D2915D030290DD000200028EED113
:103C300000260C980078FEF70BFB10B30CA8FEF7DB
:103C4000F0FA06462BE044F00104401C0C900120E1
:103C5000ECE744F00204401C0C900120E6E744F03D
:103C60000404401C0C900120E0E744F00804401CD0
:103C70000C900120DAE744F01004401C0C90012065
:103C8000D4E70C9908782A2809D1169840C81690CC
:103C9000002E02DA44F002047642491C0C910027FF
:103CA0000C9801782E2918D144F48064401C0C90A3
:103CB0000078FEF7CDFA20B10CA8FEF7B2FA07465D
:103CC0000BE00C9801782A2907D1169980C9169122
:103CD000002F00DC0027401C0C900C9801786C2908
:103CE0000AD004DC682913D06A292BD121E0742979
:103CF0001AD07A2926D121E044F48074401C0C901B
:103D000001786C291ED144F40074401C0C9019E019
:103D100044F08004401C0C900178682912D144F0D2
:103D20004004401C0C900DE044F48074401C0C9046
:103D300008E044F40074401C0C9003E044F48074E8
:103D4000401C0C900C99087869282DD00EDC622854
:103D50002AD006DC25287BD0502825D0582811D120
:103D600022E0632875D064280CD11DE0732871D03F
:103D700004DC6F2818D0702804D115E0752813D002
:103D8000782811D0DDE90A132A466D1CC0470C982B
:103D9000401C0C900C99087800287FF42AAF0B98EF
:103DA00085427DD22A4686E1782813D0582811D042
:103DB000702811D050280FD06F2818D0622818D042
:103DC0000A2224F010040C980078582813D05028A8
:103DD00011D012E01022F6E7102244F0100040F457
:103DE000807448785628EED1491C0C91EBE70822E4
:103DF000E9E70222E7E744F02004692803D06428B9
:103E000001D024F00C04610501D524F001046928D7
:103E100021D064281FD0562870D0A0056FD51698E1
:103E2000CDE90597CDF80890CDE90764C01D20F0D5
:103E300007000492D0E90012CDE900120830DDE954
:103E40000A1316902A464046FFF749FE0546B1E0A0
:103E500025E1B3E0DBE0A00529D51698C01D20F0D0
:103E60000701D1E90003083116911946CDE90597FC
:103E7000CDE907640492002901DA012200E0002262
:103E8000002302921A461B1A8A4104DB0A460021CB
:103E9000404261EB0201CDE900012A46404600E0C4
:103EA00007E1DDE90A13FFF71AFE054682E0E005A7
:103EB00014D5169901C91691CDE90376C10F059461
:103EC0000292002800DC4042CDE90001DDE90A133E
:103ED0002A464046FFF7C3FD05466BE0600605D560
:103EE000169810F8041B1690C8B20CE0200607D5EF
:103EF000169830F8041B169008B204E015E026E08E
:103F0000169901C91691CDE90376C10F0594029265
:103F1000002800DC4042CDE90001DDE90A132A4611
:103F20004046FFF79CFD054644E0169901C91691ED
:103F300041680968009103680B98421B0A9841196F
:103F40004046FFF749FE0544CDF8209032E0E005F9
:103F500010D5CDE903760292169805942A4602C838
:103F6000CDE90019DDE90A1316904046FFF777FD09
:103F700005461FE0600605D5169810F8041B16903C
:103F8000C8B20AE0200605D5169830F8041B169032
:103F900088B202E0169901C91691CDE90192CDE9E6
:103FA000037605940090DDE90A132A464046FFF7A0
:103FB00056FD05460C98401C0C90EBE60127A00727
:103FC00006D509E02A46DDE90A136D1C2020C0470A
:103FD00038467F1CB042F5D316982A466D1C10F85F
:103FE000041B1690C8B2DDE90A13C047A00706D427
:103FF00009E02A46DDE90A136D1C2020C047384637
:104000007F1CB042F5D30C98401C0C90C2E6169869
:1040100050F804BB16900FB1394601E04FF0FF3164
:10402000584600E0401C027812B1491E4A1CF9D1E2
:10403000A0EB0B0A600502D5BA4500D3BA46A0072B
:1040400006D512E02A46DDE90A136D1C2020C04780
:1040500050460AF1010AB042F4D306E0DDE90A1342
:104060002A460BF1010B6D1CC0479BF8000020B1E4
:104070006105F3D57F1E791CF0D1A00706D40AE0B4
:104080002A46DDE90A136D1C2020C04750460AF17C
:10409000010AB042F4D30C98401C0C907AE62A46F0
:1040A000DDE90A136D1C2520C0470C98401C0C90BC
:1040B00070E60B9A521EDDE90A130020C0470DB0CE
:1040C0002846BDE8F08F0000653B000810B50024CD
:1040D000002808D000F019F8B0F5803F03D20C2872
:1040E00000D80C200446204610BD0A46491E0A424C
:1040F00000D0FEE70140401A70470844401E4A1EA7
:104100009043114200D0FEE770474A1E114200D092
:10411000FEE70844401E9043704700002DE9F0413F
:1041200004460F4601206086002500260BE01BA1F7
:10413000FCF7E6FB10B16D1CADB202E0608E401CD6
:104140006086761CB6B257F8260010B101780029B7
:10415000EDD1208EA8421ED0A06A002610B11AF020
:1041600037F8A662E06A10B11AF032F8E662E800A9
:1041700019F09EFFA06238B1680019F099FFE06263
:1041800018B1A16A11B102E0FEE7FEE7002569005F
:104190001AF02DF92586BDE8F08100000A00000024
:1041A0002DE9F84F83460F469BF8090000F0070001
:1041B00002281DD09146974200DD3A46164603205C
:1041C00000EB460020F003051035DFF8C480DFF86F
:1041D000C4A0D8F80840DAF80000201AD8F8041073
:1041E0002A188A4206D2606820F0004060602CE005
:1041F000B946E0E78D421ED84FF0FF340FE000943F
:104200000022694624480CF0B7FE00226946234884
:104210000CF0B2FED8F80800DAF80010401AD8F80E
:10422000041028448842EAD8D8F80840606820F092
:104230000040606009E0284619F03AFF044620007B
:1042400019D0606840F0004060603A4649465846E0
:1042500001F0C1FD2060606800F04040401C20F08B
:1042600080406060A681A4F80E90002804DA04F172
:104270001000A06008E0FEE7D8F8080000F1100187
:10428000A1602844C8F808002046BDE8F88F000067
:104290005C000020BC01002011DB0008BD100108FB
:1042A00070B586B00022059204920392494CE288D0
:1042B0008A4201D0FF22A270E18090F83C201425B0
:1042C00002F003024FF4B476012A26D0022A43D02A
:1042D000A3789A4211D010F8263F03EB031303EBA7
:1042E0004303B3FBF5F32370407800EB001000EBC1
:1042F0004000B0FBF5F06070A27003A804AACDE9FD
:10430000002001EB41004FF6FF7101EA400005ABD0
:104310006278217809F029F93CE0A3789A4210D01C
:10432000838C03EB43035B02B3FBF6F3A38090F8AB
:10433000270000EB001000EB4000B0FBF5F06070D0
:10434000A27003A804AACDE90020C9B205AB627827
:10435000A08809F00AF91DE0A3789A4210D0838C56
:1043600003EB43035B02B3FBF6F3A38090F8260054
:1043700000EB001000EB4000B0FBF5F02070A270E5
:1043800003A804AACDE90020CAB205AB2178A08811
:1043900009F0EBF89DF814009DF810109DF80C2022
:1043A000D308BDF8042063F3040201928A08BDF823
:1043B000041062F34A110191C108BDF8040061F3D1
:1043C000CF200190BDF804000290BDF8080006B0AF
:1043D00070BD00000801002010B5084C01202070BD
:1043E0000748FEF7E0FD20B1A068BDE8104021F0CD
:1043F000AFBEA068BDE8104021F09EBE9401002031
:10440000EC1E002010B5044694F84200810709D440
:10441000B4F8401031B1A1F57F42FF3A02D0491EF5
:10442000A4F84010B4F84020A16BAAB909B18207E2
:1044300012D521461448FEF767FEFFF7CDFFE1686D
:1044400009B120468847216909B12046884720469E
:10445000BDE8104019F0BCBEE26B52422263002955
:1044600011D0820702D4626B524222634210521C66
:1044700062F3410084F84200206AA26A2262A062CC
:10448000E06AE162A06310BDEC1E002070B5334EFF
:10449000706821F00BFD0546707880F001007070A7
:1044A0002F48FEF780FD044652E00020307094F85B
:1044B00042007178C0F380028A423DD061F38200ED
:1044C00084F84200216B4A19030719D4002917DC2C
:1044D000002A15DBC00709D1616939B12046884738
:1044E000216A01442162A16A0844A062A16809B15D
:1044F0002046884794F8420040F0080084F84200C3
:10450000206B28442063002816DBE16A884200DD26
:104510002163E169204688470146606A884204D0E9
:10452000616262680AB120689047D4E90B10884242
:1045300002DB2046FFF766FF307820B10848FEF71F
:1045400032FD044604E021460548FEF743FD0446DB
:10455000002CAAD121F0B6FC706070BD940100203F
:10456000EC1E002070B504460D466068002802D09D
:104570002946FFF7F7FF2268002A04D02946204683
:10458000BDE87040104770BD89B210F029BF89B2F4
:1045900010F065BF2DE9FF4F8FB09846DDE9225935
:1045A000DDE91C010790069100200490B9F1040F89
:1045B00016D0B9F1050F17D0B9F1060F18D0B9F11F
:1045C000140F7DD10120059002260024119908FBCB
:1045D00001F00E901098401E0D90481E0C9060E166
:1045E000002005900226F0E7012005900326ECE765
:1045F000012005900226FFF70BF80068806B0490FD
:10460000E3E71E980799604301EB20231F98069962
:10461000604301EB202219121012002907DB109FC2
:10462000B94204DA002802DB119FB84202DB002005
:10463000285534E1DFB2D2B2802F05DA4FF0FF33D4
:10464000C7F17F077F0002E00123803F7F00802ABF
:1046500006DA4FF0FF3CC2F17F024FEA420A04E063
:104660004FF0010C803A4FEA420ADDF83CB000FB03
:1046700008F20B92724301FB06225A4411EB030B22
:10468000CDF828B077D4DDF834E0DDF828B0F34574
:1046900071DC10EB0C0BCDF824B06CD4DDF830E0FD
:1046A000DDF824B0F34566DC03FB06230CFB08FCB5
:1046B0000CFB062CDDF814B0BBF1000F70D000E04D
:1046C000F3E0B9F1050F32D0B9F1140F34D0B9F1DC
:1046D000060F51D0FF218B46FF208B4507D00BFBE7
:1046E0000AFBCAF5807E01FB0EBBCBF3072B884289
:1046F00006D07843C7F5807E01FB0E00C0F307208B
:10470000584440082855002844D01078517800EBD0
:10471000012003909CF800009CF8011000EB0120A0
:1047200002901878597800EB0120019041E09178CF
:104730009CF802B09878D0E7DDE90EBE0EEB4B0B8B
:10474000CDF800B0DDF800B0DDF82CE08B44CDF8FA
:1047500020B01EF80B10DDF800B000FB08BB0A9873
:104760001BF80000DDF824E0DDF820B00EFB08FEA9
:104770001EF80BB0B1E747E01188BDF81000814288
:1047800006D0BCF80010814202D01988814202D1C3
:104790000020285583E0FF218B46FF209DE7FFE79F
:1047A0001088039018880190BCF800000290FF2048
:1047B0002855BDF80C00BDF8081088420AD1BDF894
:1047C0000410884206D12198BDF80C1000EB44007B
:1047D000018064E0DDE902010AF0FF0212F0A8FDA9
:1047E0000290FAB20399019812F0A2FD0190DDE95E
:1047F00001017F2212F09CFD00902198BDF800106D
:1048000000EB440001804AE092F800B092F801E029
:104810000BEB0E2BDDF884E01FFA8BFB2EF814B0A7
:10482000B9F1050F08D0B9F1060F07D0B9F1140F8F
:104830000CD0FF2299B114E09278FBE7BDF810206C
:10484000934501D10022F5E7FF22F3E70F9A00FB21
:10485000082B0E9A01EB42021BF80220EAE7002B1C
:1048600005DBDDF834B0594507D1002B05DDC7F174
:10487000FF005043000A285511E010B9BCF1000FA9
:1048800005DB0C99884208D1BCF1000F05DDCAF1A7
:10489000FF005043000A285501E000202855641C01
:1048A00024B220988442FFF6ACAE13B0BDE8F08F7E
:1048B0002DE9F04FDDE909C8DDE90CABDDF82C90FE
:1048C0000F9F002428E009FB04F50CEB25260AFBCA
:1048D00004F508EB252536122D12002E05DB8E423D
:1048E00003DA002D01DB954202DB00253D5511E086
:1048F0005D4305EB450506EB4606354405442E7839
:1049000095F801E006EB0E26DDF838E02EF814608D
:10491000AD783D55641C24B25C45D4DBBDE8F08F16
:1049200010B592B00446A18F002915D001A810F04F
:1049300021F801940B480290A08F0C9000200121D7
:1049400009900A900B91084808900848049001A823
:1049500010F08AF812B010BD12B0BDE8104023F07C
:104960006BBA0000B57E02083D4A0108B77E020816
:1049700070B504460D46204600F030F800B1FEE761
:10498000284600F013F96168001D08446060204665
:1049900000F030F8204670BD10B50C4600F006F966
:1049A0001034A04201D3012010BD002010BD0838F2
:1049B00070477CB505460C46204600F0F7F86A467D
:1049C00001A922F0E1FADDE90032214628460BF088
:1049D0001DFF7CBD007900F00100704710B500F0AC
:1049E000E5F808B1002010BD012010BD007900F0ED
:1049F0000200704710B50446204600F07AF80460C3
:104A000010BD7CB506460D460020019000900024A4
:104A1000002D0DD06A4601A9284622F0CCFA019853
:104A20000A2805DA6A4601A9304624F0D0FE044679
:104A30005CB1204600F0BAF8A84200D2FEE7DDE9FA
:104A400000322146304624F013F920467CBD10B5D3
:104A500004462046FFF7CEFF00F093F82046BDE85D
:104A6000104000F089B810B50446204600F041F827
:104A700000F08CF82046BDE8104000F092B870B508
:104A800006460D46284600F034F8044644B1204658
:104A9000FFF7A0FF70B12846FFF7A0FF08B1FEE7BF
:104AA000FEE72146304600F056F821462846FFF73B
:104AB0005FFF0546284670BD70B506460D46284680
:104AC000FFF794FF88B1284600F03CF8044674B123
:104AD0002046FFF77FFF58B12146304600F03BF8F3
:104AE00029462046FFF744FF0546284670BDFEE7ED
:104AF000FEE770B50546284600F058F8041F284622
:104B000000F091F8214622F081FC04462846FFF788
:104B100065FF00B1FEE7204670BD10B503460C46A8
:104B20000020002C0DD05AB12146184600F07DF827
:104B30002046FFF798FF2046BDE8104000F073B80C
:104B4000FEE710BD10B504462046FFF74FFF08B141
:104B5000206810BDFEE77CB505460C46204600F0F7
:104B600025F86A4601A922F00FFADDE90032214654
:104B7000284624F07DF87CBD416841F00101416088
:104B80007047416841F0020141607047416821F07F
:104B9000020141607047027902F003020A43426059
:104BA0007047416821F0010141607047406820F082
:104BB000030070472DE9F04106460C46304600F0F0
:104BC00032F8211F22F022FC80463046FFF7EEFF2C
:104BD000051B2D1F404600F026F80746404600F012
:104BE00022F80421FFF789FA874200D0FEE7304619
:104BF000FFF7DCFF2919091D884200D0FEE729468E
:104C00004046FFF7C8FF4046FFF7D0FF0C2800D210
:104C1000FEE721463046FFF7BEFF4046FFF717FF8D
:104C20004046BDE8F0810830704770B506460D4635
:104C300014462846FFF7CEFEB0B121462846FFF7BE
:104C4000ABFE002811D021462846FFF7B3FF0446EB
:104C50002846FFF7CFFE2046FFF793FF2146304658
:104C6000BDE87040FFF7A5BEFEE770BD70B5054614
:104C70000C4616462046FFF7ADFE00B1FEE7314672
:104C80002046FFF789FE002811D031462046FFF765
:104C900091FF04462046FFF779FF21462846FFF79B
:104CA000EEFE01462846BDE87040FFF782BE70BDAB
:104CB00010B5074A054B13605160D0601046FCF7F1
:104CC000E7FCBDE810400248FCF726BD001000409C
:104CD0009C03002038B5044617F0F8FC054628462A
:104CE00017F033FD30B1218FE18620461CF0FDFD29
:104CF000012038BD204615F05DFEF8B1204615F0C4
:104D00000FFD218FE08E81420CD02087E08E009035
:104D10006A461C21204616F0A5F80128E9D1204654
:104D20001CF0E3FD284617F01EFD0428E0D12046C4
:104D30001BF0C0F8002116F0EAFDD9E7204615F077
:104D40008FFED5E770B516F089F8054628461BF0AA
:104D5000F7F80446284611F0A3FA01462046BDE8BC
:104D60007040002220F0A2BBC0F30020704710B5B5
:104D70000CF034F9C0B230B1022806D0032806D0B6
:104D80004FF0FF3010BD002010BD022010BD0120EB
:104D900010BDC0F3C0107047C0F300207047C0F3CF
:104DA00040207047C0F300107047C0F38010704778
:104DB000C0F380207047C0F3C0207047C0F340109C
:104DC0007047000010B50C46FFF7D1FF05490028D9
:104DD00003DB0122A273087001E00020A0730878B1
:104DE000A06010BD200000202DE9F04F87B00546DF
:104DF0000C46002128461AF07DFF60B32146284664
:104E000000F096FA2146284600F072F80021284664
:104E10001BF017FF0690002128461BF0C6FF0590E7
:104E2000002128461BF0C8FD01281BD000270021C7
:104E300028461CF01EF98046002128461BF03CFE47
:104E4000064642F2D179C8450ED1688C40050BD494
:104E50004FF001080AE007B02046BDE8F04F1C21E2
:104E600019F0C5BA0127E2E74FF0000828461AF00A
:104E7000C9FF834628460021DFF870A0BAF8042055
:104E80001BF0F3FF0490C2B2A36821692068CDE94A
:104E90000013CDE9020741465846069B0AF0C0FBC5
:104EA00020834E4504D1688C800501D4012600E0A2
:104EB000002628461AF089FF074628460021BAF83E
:104EC00008201BF0D2FFC2B2E36861696068002568
:104ED000CDE90013CDE9020531463846059B0AF0BD
:104EE0009FFB608307B0BDE8F08F00007C000020CE
:104EF0002DE9F84F82460C46504609F09DFD0746C5
:104F000050461AF07FFF8146384601F0C3F8206111
:104F1000400019F0FDF820602069400019F0F8F811
:104F2000A060002541F69A7836E0494E37F9150021
:104F3000404530D14FF0000B1EE0594650461AF064
:104F4000D9FE0090434900981CF0B6F990B900983A
:104F500009F084FD01280DD1009809F075FDA842E3
:104F600008D100981CF058F9B04203DB00981CF0FF
:104F700053F906460BF1010B50461AF0D1FE584585
:104F8000DBD8002E03DBA06820F8156003E0A168E1
:104F9000002021F815006D1C2069A842C5D8002505
:104FA000AB46002041F69B7618E037F91010B1426D
:104FB00004DB0D44A5F5F8559B3D0EE0414506D1B7
:104FC000A16831F8101059440FFA81FB05E0A2687E
:104FD00022F8101059440FFA81FB401C21698142CC
:104FE000E3D8002150461BF02CFE2169C1F10101DC
:104FF00000FB0190A0EB0B0001B2002900DA0021B8
:105000004FF0FF3C0022002011E037F91030B3428E
:105010000CDBA3F5F8539B3B1AB201FB02F3B3FB85
:10502000F5F3D4F808C02CF810308446401C2369EE
:105030008342EAD8BCF1000F07DBA81A4843B0FB53
:10504000F5F0081AA16821F81C00BDE8F88F0000EF
:1050500001E0FFFF010006002DE9F05F0746002296
:10506000114638461DF034FC002138461BF0E0FCA8
:105070000446002138461BF0AAFE20440FFA80F8AF
:10508000002138461BF095FD20440FFA80FA38467F
:105090001BF03EFC404450440FFA80F92C4C38463B
:1050A0001AF03EFE8346002517E0B868006850F805
:1050B0002560284930461CF0FFF868B930461CF0DE
:1050C00077FCC0B1B6F91A00B7F91610401A411CA6
:1050D000A14200DB441C24B26D1C5D45E5D341F6C2
:1050E000FF70C44232D004EB0A0000B2484500DC35
:1050F0004846BDE8F09F002130461BF02DFCD0B1A2
:10510000012818D0022816D0032814D000213046D8
:105110001BF0C7FF0028DFD106F11400064610F08F
:1051200060FA4044A04204DB304610F05AFA00EB2B
:10513000080424B2D0E7B6F91A00B7F91610401ADD
:10514000411CA14200DB441C24B2C5E74846D0E71D
:1051500001E0FFFF010004002DE9F05F0546002299
:10516000114628461DF09EFB002128461BF060FCDE
:105170000446002128461BF0D0FD20440FFA80F899
:10518000002128461BF07BFD20440FFA80F92846B9
:105190001BF0CCFB484440440FFA80FB5A4C284695
:1051A0001AF0BEFD8246002128461BF0F3FB0128C1
:1051B00001D0002666E0002617E0A868006850F8D5
:1051C0002670524938461CF077F868B938461CF00A
:1051D000EFFBA0B1B5F91800B7F91410401A411C43
:1051E000A14200DB441C24B2761C5645E5D341F6AF
:1051F000FF70C4424FD004EB090004B24BE0002121
:1052000038461BF0A9FBD0B1032818D0062816D0C9
:10521000082814D0002138461BF03DFF0028E3D1B8
:1052200007F11400074610F027FA4044A04204DBBF
:10523000384610F021FA00EB080424B2D4E7B5F99F
:105240001800B7F91410401A411CA14200DB441C9D
:1052500024B2C9E7A868006850F826702B49384680
:105260001CF02AF868B938461CF0A2FBD0B1B7F997
:105270001800B5F91410401A411CA14200DB441C6F
:1052800024B2761C5645E5D341F6FF70C44202D0E5
:1052900004EB080004B241F6FF70C4422DD1584619
:1052A000BDE8F09F002138461BF056FBD0B1012825
:1052B00018D0042816D0072814D0002138461BF037
:1052C000F0FE0028DDD107F11400074610F0D4F9F4
:1052D0004844A04204DB384610F0CEF900EB090444
:1052E00024B2CEE7B7F91800B5F91410401A411CE2
:1052F000A14200DB441C24B2C3E75C4501DD20462B
:10530000CEE75846CCE7000001E0FFFF01000400B3
:1053100010B50446206818F049FF606818F046FF91
:10532000A06818F043FFE068BDE8104018F03EBFE9
:105330002DE9F05F81460C46484609F0E9FF074633
:10534000384600F0A7FE6061400018F0E1FE6060A2
:105350006069400018F0DCFEE060002541F69A78B4
:1053600036E04B4E37F91500404530D14FF0000A7A
:105370001EE0514648461AF0BDFC83464549584652
:105380001BF09AFF90B958460AF052F801280DD147
:1053900058460AF043F8A84208D158461AF091FD41
:1053A000B04203DB58461AF08CFD06460AF1010AAA
:1053B00048461AF0B5FC5045DBD8002E03DBE06808
:1053C00020F8156003E0E168002021F815006D1C4D
:1053D0006069A842C5D80025AA46002041F69B7600
:1053E00018E037F91010B14204DB0D44A5F5F8556B
:1053F0009B3D0EE0414506D1E16831F81010514463
:105400000FFA81FA05E0E26822F8101051440FFA11
:1054100081FA401C61698142E3D8002148461BF0B3
:10542000C4FC804648461AF0D0FC6169C1F1010114
:1054300008FB0100A0EB0A0001B2002900DA0021FC
:105440004FF0FF3C0022002011E037F91030B3424A
:105450000CDBA3F5F8539B3B1AB201FB02F3B3FB41
:10546000F5F3D4F80CC02CF810308446401C636966
:105470008342EAD8BCF1000F07DBA81A4843B0FB0F
:10548000F5F0081AE16821F81C00BDE8F09F000063
:1054900001E0FFFF0100060038B504462046002168
:1054A0006E221BF0E2FC009000B208B1022038BD71
:1054B000204600216D221BF0D8FC009000B2B0F510
:1054C000807F01D0022038BD2046002161221BF0E0
:1054D000CCFC0090C0B2FF2801D0012038BD20468E
:1054E000002168221BF0C1FC0090C0B208B101206D
:1054F00038BD002038BD1CB50B8804892344ADF8A5
:1055000000304B8844892344ADF802308B880489ED
:105510002344ADF80430C98843891944ADF8061016
:105520004369694698471CBDF8B50E4604462046B7
:10553000A16B002909D020F0F9FA104909688847C1
:10554000A16B884201D30020F8BD606B28B10078C0
:1055500018B1002000900A4D08E00120F8BD2A682B
:1055600069469047B04201D10120F8BD606B0099B7
:10557000415C0029F3D10020F8BD000008020020A2
:10558000F40100202DE9FF4F89B00D461A9CE87800
:10559000C007002801D0F44800E0F448079001D08B
:1055A000F34F00E0F34F01D1F14800E0F1480690DD
:1055B0004FF0000948466188A288A1EB020109B2B8
:1055C0000246D4F8108013E002EB82064FF0100C74
:1055D000E3680CEB860C13F80CC05FEACC7C0CD0B3
:1055E0004FF0080C0CEB86069B5BC91A09B2521CE3
:1055F0009045E9D84FF0000C4CE04FF00C0C0CEB50
:1056000086069B5B184400B2F1E70CEB8C06102277
:10561000E36802EB860208929A5CD20738D1C8B1DF
:1056200091FBF0F80C2202EB860296469A5A02FB96
:1056300008F212B24FF0060A4FF004080AEB860A8D
:1056400008EB860833F90AA033F90880924502DD99
:10565000934601E0FEE7D346D84504DC924501DDE0
:10566000904600E0D046904504D0089A4FF00109DA
:1056700043F80290E368082202EB860223F80280D6
:10568000E36833F80E20801A00B2A1EB080109B2DA
:105690000CF1010C22696245B7D8B9F1000F87D12E
:1056A000002109981BF082F9012821D04FF0000A4F
:1056B00000200590049004A805A9CDE900102089D8
:1056C000B4F9022003B22878189921F0A5FEE878F1
:1056D00010EA0A0F06D009981AF094FBBDF81410CE
:1056E000084405900B9909981AF004FB064631E12D
:1056F0004FF0010ADCE7A04930461BF0DDFD40B168
:10570000E8780BAAC0F38001099809F095FC0646D9
:1057100020E1002130461BF0B9F9E8B34FF0000852
:105720000020216910E0E26800EB800352F823209A
:10573000B24208D100EB8002E168082000EB820051
:1057400031F9008002E0401C8142ECD8E878C007C3
:1057500006D0708C40F4806020F40070708405E006
:10576000708C40F4007020F48060708406F11400A6
:105770008146B84740452AD030461CF0B6F8B08A7A
:10578000ADF80400F08AADF80600308BADF80800E3
:10579000708BADF80A0000E013E0079A41464846D6
:1057A000904701AA2921304615F05CFB30461AF0DB
:1057B000C7FB3246222115F055FB30461CF095F808
:1057C00005E0708C20F4806020F4007070844FF04D
:1057D000000B6878012811D0022817D1069906F12C
:1057E00014008847B4F90010491C21F00101081A7F
:1057F00000EBD07040100FFA80FB07E0069906F12D
:10580000140088472188081A0FFA80FBE87810EA0C
:105810000A0F06D006F11400B847BDF81410081A94
:105820000590304600216B221BF01FFB02900FFAFF
:1058300080F8304600216C221BF017FB02900FFA13
:1058400080F930461BF0E8FC039030461AF039FB33
:105850000146C8F34130012810D128F4C040B0F50A
:10586000FA6F0BDCB0F57A7F01DDC0F57A70039A30
:105870005043642290FBF2F00FFA80F8C9F34130F4
:1058800001280FD129F4C040B0F5FA6F0ADCB0F559
:105890007A7F01DDC0F57A704843642190FBF1F016
:1058A0000FFA80F9B18A1698401A404402B2F18A80
:1058B0001798401A484401B2E878C007002802D07F
:1058C000BDF9140000E0584610440FFA80F801D1E9
:1058D000BDF914B00BEB01000FFA80F958EA09008A
:1058E00017D030461CF001F8B08A4044B082308BAB
:1058F00040443083F08A4844F082708B484470837F
:1059000030461BF0F2FF00234A46414630461CF069
:10591000A2F8E87810EA0A0F0CD106F11400B84793
:1059200019990844BDF810100844BDF81410084433
:10593000059007E0BDF8101019980844BDF8141040
:10594000081A0590E8780BAAC0F38001099809F0BD
:1059500073FB0646002E04D0DDE90B1081427FF474
:10596000CAAE0DB0BDE8F08F615701085757010866
:10597000CD5601081F560108010006002DE9F04F21
:105980008BB005468A46BAF1000F43D0A5F818A09F
:10599000286808B118F01CFC0AEB4A00062101EB4C
:1059A000400018F085FB286040B36860022101EBDD
:1059B0004A010144E960042101EB8A010144A96024
:1059C0004FF00008BAF1010F19D00AF101000446A6
:1059D000C00018F09DFB064606EB8407C1464FEA5F
:1059E0008A0002B209A90AA800F030F90024BDF922
:1059F00028008010059000200190B2E0FEE7B4215D
:105A00000170E868A0F80080E96801204880A86873
:105A1000A0F800800BB0BDE8F08F4FF000080DF14A
:105A2000140B09A90AA800F018F90AA800F004F953
:105A300070B1BDF9280081104BF8281000F0030167
:105A400001A840F8281008F10108B8F1040FE8DBBC
:105A5000B8F1040F7ED108990598884213D10598B2
:105A600026F8140027F81490DDE901010844DDE967
:105A70000312114408446968085569680001085513
:105A8000641C24B26BE0DDE90501884220D0059852
:105A900026F8140027F81490696801980855696879
:105AA00000010855641C20B20599491E26F8101003
:105AB00027F81090DDE902120A440499091D1144E7
:105AC0006A6811546A6809011154401C04B246E026
:105AD00007990598884220D0059826F8140027F8E1
